{
  "contractName": "AdminControl",
  "abi": [
    {
      "constant": true,
      "inputs": [
        {
          "internalType": "address",
          "name": "contractAddr",
          "type": "address"
        }
      ],
      "name": "getAdmin",
      "outputs": [
        {
          "internalType": "address",
          "name": "",
          "type": "address"
        }
      ],
      "payable": false,
      "stateMutability": "view",
      "type": "function"
    },
    {
      "constant": false,
      "inputs": [
        {
          "internalType": "address",
          "name": "contractAddr",
          "type": "address"
        },
        {
          "internalType": "address",
          "name": "newAdmin",
          "type": "address"
        }
      ],
      "name": "setAdmin",
      "outputs": [],
      "payable": false,
      "stateMutability": "nonpayable",
      "type": "function"
    },
    {
      "constant": false,
      "inputs": [
        {
          "internalType": "address",
          "name": "contractAddr",
          "type": "address"
        }
      ],
      "name": "destroy",
      "outputs": [],
      "payable": false,
      "stateMutability": "nonpayable",
      "type": "function"
    }
  ],
  "bytecode": "0x608060405234801561001057600080fd5b50610153806100206000396000f3fe608060405234801561001057600080fd5b50600436106100405760003560e01c8062f55d9d1461004557806364efb22b1461007a578063c55b6bb7146100d6575b600080fd5b6100786004803603602081101561005b57600080fd5b503573ffffffffffffffffffffffffffffffffffffffff16610111565b005b6100ad6004803603602081101561009057600080fd5b503573ffffffffffffffffffffffffffffffffffffffff16610114565b6040805173ffffffffffffffffffffffffffffffffffffffff9092168252519081900360200190f35b610078600480360360408110156100ec57600080fd5b5073ffffffffffffffffffffffffffffffffffffffff8135811691602001351661011a565b50565b50600090565b505056fea265627a7a72315820f52b5755d506f6213fa0666dd67d99e3069e79ad76d943b61ed925c768cfec3864736f6c634300050b0032",
  "source": "// SPDX-License-Identifier: MIT\n\npragma solidity >=0.4.15;\n\ncontract AdminControl {\n    /*** Query Functions ***/\n    /**\n     * @dev get admin of specific contract\n     * @param contractAddr The address of specific contract\n     */\n    function getAdmin(address contractAddr) public view returns (address) {}\n\n    function setAdmin(address contractAddr, address newAdmin) public {}\n\n    function destroy(address contractAddr) public {}\n}\n",
  "sourcePath": "/Users/wangfan/Project/voting/contracts/AdminControl.sol",
  "compiler": {
    "name": "solc",
    "version": "0.5.11+commit.c082d0b4.Emscripten.clang"
  },
  "schemaVersion": "3.0.23",
  "updatedAt": "2020-11-11T16:44:22.693Z",
  "devdoc": {
    "methods": {
      "getAdmin(address)": {
        "details": "get admin of specific contract",
        "params": {
          "contractAddr": "The address of specific contract"
        }
      }
    }
  },
  "userdoc": {
    "methods": {}
  }
}