{
  "contractName": "Governance",
  "abi": [
    {
      "constant": true,
      "inputs": [
        {
          "internalType": "uint256",
          "name": "",
          "type": "uint256"
        }
      ],
      "name": "proposals",
      "outputs": [
        {
          "internalType": "string",
          "name": "title",
          "type": "string"
        },
        {
          "internalType": "string",
          "name": "discussion",
          "type": "string"
        },
        {
          "internalType": "uint256",
          "name": "deadline",
          "type": "uint256"
        },
        {
          "internalType": "address",
          "name": "proposer",
          "type": "address"
        }
      ],
      "payable": false,
      "stateMutability": "view",
      "type": "function"
    },
    {
      "constant": false,
      "inputs": [
        {
          "internalType": "address",
          "name": "account",
          "type": "address"
        }
      ],
      "name": "addWhitelisted",
      "outputs": [],
      "payable": false,
      "stateMutability": "nonpayable",
      "type": "function"
    },
    {
      "constant": true,
      "inputs": [],
      "name": "SPONSOR",
      "outputs": [
        {
          "internalType": "contract SponsorWhitelistControl",
          "name": "",
          "type": "address"
        }
      ],
      "payable": false,
      "stateMutability": "view",
      "type": "function"
    },
    {
      "constant": false,
      "inputs": [
        {
          "internalType": "address",
          "name": "account",
          "type": "address"
        }
      ],
      "name": "removeWhitelisted",
      "outputs": [],
      "payable": false,
      "stateMutability": "nonpayable",
      "type": "function"
    },
    {
      "constant": true,
      "inputs": [],
      "name": "nextProposer",
      "outputs": [
        {
          "internalType": "address",
          "name": "",
          "type": "address"
        }
      ],
      "payable": false,
      "stateMutability": "view",
      "type": "function"
    },
    {
      "constant": true,
      "inputs": [
        {
          "internalType": "address",
          "name": "account",
          "type": "address"
        }
      ],
      "name": "isWhitelisted",
      "outputs": [
        {
          "internalType": "bool",
          "name": "",
          "type": "bool"
        }
      ],
      "payable": false,
      "stateMutability": "view",
      "type": "function"
    },
    {
      "constant": false,
      "inputs": [],
      "name": "renounceWhitelistAdmin",
      "outputs": [],
      "payable": false,
      "stateMutability": "nonpayable",
      "type": "function"
    },
    {
      "constant": true,
      "inputs": [],
      "name": "adminControl",
      "outputs": [
        {
          "internalType": "contract AdminControl",
          "name": "",
          "type": "address"
        }
      ],
      "payable": false,
      "stateMutability": "view",
      "type": "function"
    },
    {
      "constant": false,
      "inputs": [
        {
          "internalType": "address",
          "name": "account",
          "type": "address"
        }
      ],
      "name": "addWhitelistAdmin",
      "outputs": [],
      "payable": false,
      "stateMutability": "nonpayable",
      "type": "function"
    },
    {
      "constant": true,
      "inputs": [],
      "name": "STAKING",
      "outputs": [
        {
          "internalType": "contract Staking",
          "name": "",
          "type": "address"
        }
      ],
      "payable": false,
      "stateMutability": "view",
      "type": "function"
    },
    {
      "constant": true,
      "inputs": [
        {
          "internalType": "address",
          "name": "account",
          "type": "address"
        }
      ],
      "name": "isWhitelistAdmin",
      "outputs": [
        {
          "internalType": "bool",
          "name": "",
          "type": "bool"
        }
      ],
      "payable": false,
      "stateMutability": "view",
      "type": "function"
    },
    {
      "constant": true,
      "inputs": [],
      "name": "proposalCnt",
      "outputs": [
        {
          "internalType": "uint256",
          "name": "",
          "type": "uint256"
        }
      ],
      "payable": false,
      "stateMutability": "view",
      "type": "function"
    },
    {
      "constant": false,
      "inputs": [],
      "name": "renounceWhitelisted",
      "outputs": [],
      "payable": false,
      "stateMutability": "nonpayable",
      "type": "function"
    },
    {
      "inputs": [],
      "payable": false,
      "stateMutability": "nonpayable",
      "type": "constructor"
    },
    {
      "anonymous": false,
      "inputs": [
        {
          "indexed": true,
          "internalType": "uint256",
          "name": "proposalId",
          "type": "uint256"
        },
        {
          "indexed": true,
          "internalType": "address",
          "name": "proposer",
          "type": "address"
        },
        {
          "indexed": false,
          "internalType": "string",
          "name": "title",
          "type": "string"
        }
      ],
      "name": "Proposed",
      "type": "event"
    },
    {
      "anonymous": false,
      "inputs": [
        {
          "indexed": true,
          "internalType": "uint256",
          "name": "proposalId",
          "type": "uint256"
        },
        {
          "indexed": true,
          "internalType": "address",
          "name": "voter",
          "type": "address"
        },
        {
          "indexed": true,
          "internalType": "uint256",
          "name": "votedOption",
          "type": "uint256"
        },
        {
          "indexed": false,
          "internalType": "uint256",
          "name": "votedAmount",
          "type": "uint256"
        }
      ],
      "name": "Voted",
      "type": "event"
    },
    {
      "anonymous": false,
      "inputs": [
        {
          "indexed": true,
          "internalType": "uint256",
          "name": "proposalId",
          "type": "uint256"
        },
        {
          "indexed": true,
          "internalType": "address",
          "name": "voter",
          "type": "address"
        },
        {
          "indexed": true,
          "internalType": "uint256",
          "name": "withdrawOption",
          "type": "uint256"
        },
        {
          "indexed": false,
          "internalType": "uint256",
          "name": "withdrawAmount",
          "type": "uint256"
        }
      ],
      "name": "WithdrawVoted",
      "type": "event"
    },
    {
      "anonymous": false,
      "inputs": [
        {
          "indexed": true,
          "internalType": "address",
          "name": "account",
          "type": "address"
        }
      ],
      "name": "WhitelistedAdded",
      "type": "event"
    },
    {
      "anonymous": false,
      "inputs": [
        {
          "indexed": true,
          "internalType": "address",
          "name": "account",
          "type": "address"
        }
      ],
      "name": "WhitelistedRemoved",
      "type": "event"
    },
    {
      "anonymous": false,
      "inputs": [
        {
          "indexed": true,
          "internalType": "address",
          "name": "account",
          "type": "address"
        }
      ],
      "name": "WhitelistAdminAdded",
      "type": "event"
    },
    {
      "anonymous": false,
      "inputs": [
        {
          "indexed": true,
          "internalType": "address",
          "name": "account",
          "type": "address"
        }
      ],
      "name": "WhitelistAdminRemoved",
      "type": "event"
    },
    {
      "constant": true,
      "inputs": [],
      "name": "getBlockNumber",
      "outputs": [
        {
          "internalType": "uint256",
          "name": "",
          "type": "uint256"
        }
      ],
      "payable": false,
      "stateMutability": "view",
      "type": "function"
    },
    {
      "constant": true,
      "inputs": [],
      "name": "proposalCount",
      "outputs": [
        {
          "internalType": "uint256",
          "name": "",
          "type": "uint256"
        }
      ],
      "payable": false,
      "stateMutability": "view",
      "type": "function"
    },
    {
      "constant": true,
      "inputs": [
        {
          "internalType": "uint256",
          "name": "proposalId",
          "type": "uint256"
        },
        {
          "internalType": "address",
          "name": "voter",
          "type": "address"
        }
      ],
      "name": "getVoteForProposal",
      "outputs": [
        {
          "internalType": "uint256",
          "name": "",
          "type": "uint256"
        },
        {
          "internalType": "uint256",
          "name": "",
          "type": "uint256"
        }
      ],
      "payable": false,
      "stateMutability": "view",
      "type": "function"
    },
    {
      "constant": true,
      "inputs": [
        {
          "internalType": "uint256",
          "name": "proposalId",
          "type": "uint256"
        }
      ],
      "name": "getProposalById",
      "outputs": [
        {
          "components": [
            {
              "internalType": "string",
              "name": "title",
              "type": "string"
            },
            {
              "internalType": "string",
              "name": "discussion",
              "type": "string"
            },
            {
              "internalType": "uint256",
              "name": "deadline",
              "type": "uint256"
            },
            {
              "internalType": "string[]",
              "name": "options",
              "type": "string[]"
            },
            {
              "internalType": "uint256[]",
              "name": "optionVotes",
              "type": "uint256[]"
            },
            {
              "internalType": "string",
              "name": "status",
              "type": "string"
            }
          ],
          "internalType": "struct Governance.ProposalAbstract",
          "name": "",
          "type": "tuple"
        }
      ],
      "payable": false,
      "stateMutability": "view",
      "type": "function"
    },
    {
      "constant": true,
      "inputs": [
        {
          "internalType": "uint256",
          "name": "offset",
          "type": "uint256"
        },
        {
          "internalType": "uint256",
          "name": "cnt",
          "type": "uint256"
        }
      ],
      "name": "getProposalList",
      "outputs": [
        {
          "components": [
            {
              "internalType": "string",
              "name": "title",
              "type": "string"
            },
            {
              "internalType": "string",
              "name": "discussion",
              "type": "string"
            },
            {
              "internalType": "uint256",
              "name": "deadline",
              "type": "uint256"
            },
            {
              "internalType": "string[]",
              "name": "options",
              "type": "string[]"
            },
            {
              "internalType": "uint256[]",
              "name": "optionVotes",
              "type": "uint256[]"
            },
            {
              "internalType": "string",
              "name": "status",
              "type": "string"
            }
          ],
          "internalType": "struct Governance.ProposalAbstract[]",
          "name": "",
          "type": "tuple[]"
        }
      ],
      "payable": false,
      "stateMutability": "view",
      "type": "function"
    },
    {
      "constant": false,
      "inputs": [
        {
          "internalType": "address",
          "name": "proposer",
          "type": "address"
        }
      ],
      "name": "setNextProposer",
      "outputs": [],
      "payable": false,
      "stateMutability": "nonpayable",
      "type": "function"
    },
    {
      "constant": false,
      "inputs": [
        {
          "internalType": "uint256",
          "name": "proposalId",
          "type": "uint256"
        },
        {
          "internalType": "uint256",
          "name": "optionId",
          "type": "uint256"
        }
      ],
      "name": "vote",
      "outputs": [],
      "payable": false,
      "stateMutability": "nonpayable",
      "type": "function"
    },
    {
      "constant": false,
      "inputs": [
        {
          "internalType": "string",
          "name": "title",
          "type": "string"
        },
        {
          "internalType": "string",
          "name": "discussion",
          "type": "string"
        },
        {
          "internalType": "uint256",
          "name": "deadline",
          "type": "uint256"
        },
        {
          "internalType": "string[]",
          "name": "options",
          "type": "string[]"
        }
      ],
      "name": "submitProposal",
      "outputs": [],
      "payable": false,
      "stateMutability": "nonpayable",
      "type": "function"
    },
    {
      "constant": false,
      "inputs": [
        {
          "internalType": "string",
          "name": "title",
          "type": "string"
        },
        {
          "internalType": "string",
          "name": "discussion",
          "type": "string"
        },
        {
          "internalType": "uint256",
          "name": "deadline",
          "type": "uint256"
        },
        {
          "internalType": "string[]",
          "name": "options",
          "type": "string[]"
        },
        {
          "internalType": "address",
          "name": "proposer",
          "type": "address"
        }
      ],
      "name": "submitProposalByWhitelist",
      "outputs": [],
      "payable": false,
      "stateMutability": "nonpayable",
      "type": "function"
    }
  ],
  "bytecode": "0x60806040523480156200001157600080fd5b5062000038620000296001600160e01b036200029e16565b6001600160e01b03620002a216565b6040517fc55b6bb70000000000000000000000000000000000000000000000000000000081527308880000000000000000000000000000000000009063c55b6bb7906200008d903090600090600401620005d7565b600060405180830381600087803b158015620000a857600080fd5b505af1158015620000bd573d6000803e3d6000fd5b50506040517f64efb22b0000000000000000000000000000000000000000000000000000000081526000925073088800000000000000000000000000000000000091506364efb22b9062000116903090600401620005c7565b60206040518083038186803b1580156200012f57600080fd5b505afa15801562000144573d6000803e3d6000fd5b505050506040513d601f19601f820116820180604052506200016a919081019062000430565b6001600160a01b031614620001b6576040517f08c379a0000000000000000000000000000000000000000000000000000000008152600401620001ad9062000622565b60405180910390fd5b60408051600180825281830190925260609160208083019080388339019050509050600081600081518110620001e857fe5b6001600160a01b03909216602092830291909101909101526040517f10128d3e000000000000000000000000000000000000000000000000000000008152730888000000000000000000000000000000000001906310128d3e9062000252908490600401620005fd565b600060405180830381600087803b1580156200026d57600080fd5b505af115801562000282573d6000803e3d6000fd5b505050506200029733620002f460201b60201c565b5062000699565b3390565b620002bd8160006200034660201b620011a91790919060201c565b6040516001600160a01b038216907f22380c05984257a1cb900161c713dd71d39e74820f1aea43bd3f1bdd2096129990600090a250565b6200030f8160016200034660201b620011a91790919060201c565b6040516001600160a01b038216907fee1504a83b6d4a361f4c1dc78ab59bfa30d6a3b6612c403e86bb01ef2984295f90600090a250565b6200035b82826001600160e01b03620003ba16565b1562000395576040517f08c379a0000000000000000000000000000000000000000000000000000000008152600401620001ad9062000610565b6001600160a01b0316600090815260209190915260409020805460ff19166001179055565b60006001600160a01b038216620003ff576040517f08c379a0000000000000000000000000000000000000000000000000000000008152600401620001ad9062000634565b506001600160a01b03811660009081526020839052604090205460ff165b92915050565b80516200041d816200067f565b6000602082840312156200044357600080fd5b600062000451848462000423565b949350505050565b600062000467838362000480565b505060200190565b6200047a816200066b565b82525050565b6200047a8162000659565b600062000498826200064c565b620004a4818562000650565b9350620004b18362000646565b8060005b83811015620004e5578151620004cc888262000459565b9750620004d98362000646565b925050600101620004b5565b509495945050505050565b6000620004ff601f8362000650565b7f526f6c65733a206163636f756e7420616c72656164792068617320726f6c6500815260200192915050565b60006200053a60158362000650565b7f726571756972652061646d696e203d3d206e756c6c0000000000000000000000815260200192915050565b60006200057560228362000650565b7f526f6c65733a206163636f756e7420697320746865207a65726f20616464726581527f7373000000000000000000000000000000000000000000000000000000000000602082015260400192915050565b602081016200041d828462000480565b60408101620005e7828562000480565b620005f660208301846200046f565b9392505050565b60208082528101620005f681846200048b565b602080825281016200041d81620004f0565b602080825281016200041d816200052b565b602080825281016200041d8162000566565b60200190565b5190565b90815260200190565b60006001600160a01b0382166200041d565b60006200041d8260006200041d8262000659565b6200068a8162000659565b81146200069657600080fd5b50565b61204c80620006a96000396000f3fe608060405234801561001057600080fd5b50600436106101815760003560e01c8063555d3e63116100d8578063a9cdb7cb1161008c578063be1add6111610066578063be1add6114610324578063d6cd94731461032c578063da35c6641461033457610181565b8063a9cdb7cb146102eb578063b384abef146102fe578063bb5f747b1461031157610181565b80637362d9c8116100bd5780637362d9c8146102b057806373708b1b146102c357806397610f30146102e357610181565b8063555d3e63146102875780636e7875a71461028f57610181565b80633656de211161013a5780633af32abf116101145780633af32abf1461024a57806342cbb15c1461026a5780634c5a628c1461027f57610181565b80633656de21146102025780633956173e146102225780633a0089561461023557610181565b806310154bad1161016b57806310154bad146101c75780631d073a7a146101da578063291d9549146101ef57610181565b8062c9a96214610186578063013cf08b1461019b575b600080fd5b610199610194366004611572565b61033c565b005b6101ae6101a93660046116d6565b610382565b6040516101be9493929190611dbb565b60405180910390f35b6101996101d536600461154c565b6104e6565b6101e2610519565b6040516101be9190611d9c565b6101996101fd36600461154c565b610531565b6102156102103660046116d6565b610561565b6040516101be9190611ecc565b61019961023036600461154c565b6105b3565b61023d610609565b6040516101be9190611d54565b61025d61025836600461154c565b610618565b6040516101be9190611d8e565b61027261062b565b6040516101be9190611edd565b610199610630565b6101e2610642565b6102a261029d366004611712565b61065a565b6040516101be929190611eeb565b6101996102be36600461154c565b6106cf565b6102d66102d136600461174c565b6106ff565b6040516101be9190611d7d565b6101e26107e1565b6101996102f936600461161a565b6107f9565b61019961030c36600461174c565b610834565b61025d61031f36600461154c565b610adc565b610272610aee565b610199610af4565b610272610b04565b6002546001600160a01b0316331461036f5760405162461bcd60e51b815260040161036690611ebc565b60405180910390fd5b61037c8484848433610b0a565b50505050565b6004818154811061038f57fe5b60009182526020918290206008919091020180546040805160026001841615610100026000190190931692909204601f8101859004850283018501909152808252919350918391908301828280156104285780601f106103fd57610100808354040283529160200191610428565b820191906000526020600020905b81548152906001019060200180831161040b57829003601f168201915b505050505090806001018054600181600116156101000203166002900480601f0160208091040260200160405190810160405280929190818152602001828054600181600116156101000203166002900480156104c65780601f1061049b576101008083540402835291602001916104c6565b820191906000526020600020905b8154815290600101906020018083116104a957829003601f168201915b5050505060028301546007909301549192916001600160a01b0316905084565b6104f161031f610cd6565b61050d5760405162461bcd60e51b815260040161036690611e9c565b61051681610cda565b50565b73088800000000000000000000000000000000000181565b61053c61031f610cd6565b6105585760405162461bcd60e51b815260040161036690611e9c565b61051681610d22565b610569611269565b600354821061058a5760405162461bcd60e51b815260040161036690611dfc565b6105ad6004838154811061059a57fe5b9060005260206000209060080201610d6a565b92915050565b6105be610258610cd6565b6105da5760405162461bcd60e51b815260040161036690611eac565b6002805473ffffffffffffffffffffffffffffffffffffffff19166001600160a01b0392909216919091179055565b6002546001600160a01b031681565b60006105ad60018363ffffffff61106316565b435b90565b61064061063b610cd6565b6110ab565b565b73088800000000000000000000000000000000000081565b600080600354841061067e5760405162461bcd60e51b815260040161036690611dfc565b60006004858154811061068d57fe5b600091825260208083206001600160a01b0388168452600560089093020191820181526040808420546006909301909152909120549093509150509250929050565b6106da61031f610cd6565b6106f65760405162461bcd60e51b815260040161036690611e9c565b610516816110f3565b606060035483106107225760405162461bcd60e51b815260040161036690611e7c565b60648211156107435760405162461bcd60e51b815260040161036690611e3c565b60035483900360001981019083111561075d578060010192505b60608360405190808252806020026020018201604052801561079957816020015b610786611269565b81526020019060019003908161077e5790505b50905060005b848110156107d8576107b960048285038154811061059a57fe5b8282815181106107c557fe5b602090810291909101015260010161079f565b50949350505050565b73088800000000000000000000000000000000000281565b610804610258610cd6565b6108205760405162461bcd60e51b815260040161036690611eac565b61082d8585858585610b0a565b5050505050565b60035482106108555760405162461bcd60e51b815260040161036690611dfc565b60006004838154811061086457fe5b9060005260206000209060080201905043816002015410156108985760405162461bcd60e51b815260040161036690611e1c565b600381015482106108bb5760405162461bcd60e51b815260040161036690611e6c565b336000908152600682016020526040902054801561097657336000908152600583016020526040902054600483018054610914918491849081106108fb57fe5b906000526020600020015461113b90919063ffffffff16565b83600401828154811061092357fe5b906000526020600020018190555080336001600160a01b0316867f0d73152460c4be6c9f1693e15109cf8a8682b9faf06a25208c1e0bb915c26f1d8560405161096c9190611edd565b60405180910390a4505b60028201546040517fc90abac80000000000000000000000000000000000000000000000000000000081526000917308880000000000000000000000000000000000029163c90abac8916109cf91339190600401611d62565b60206040518083038186803b1580156109e757600080fd5b505afa1580156109fb573d6000803e3d6000fd5b505050506040513d601f19601f82011682018060405250610a1f91908101906116f4565b3360009081526005850160209081526040808320889055600687019091529020819055600484018054919250610a759183919087908110610a5c57fe5b906000526020600020015461118490919063ffffffff16565b836004018581548110610a8457fe5b906000526020600020018190555083336001600160a01b0316867fb4c54afd73915f9f756c8dee39fe0b311937871a92261a47747f7a3d32f63a0c84604051610acd9190611edd565b60405180910390a45050505050565b60006105ad818363ffffffff61106316565b60035481565b610640610aff610cd6565b610d22565b60035490565b6103e882511115610b2d5760405162461bcd60e51b815260040161036690611e4c565b610b3561129f565b85815260208082018690526040808301869052606083018590528451815181815281840281019093019091528015610b77578160200160208202803883390190505b5060808201526001600160a01b03821660a082015260048054600181018083556000929092528251805184926008027f8a35acfbc15ff81a39ae7d344fd709f28e8600b4aa8c65c6b64bfe7fe36bd19b0191610bd8918391602001906112de565b506020828101518051610bf192600185019201906112de565b506040820151600282015560608201518051610c1791600384019160209091019061135c565b5060808201518051610c339160048401916020909101906113b5565b5060a091909101516007909101805473ffffffffffffffffffffffffffffffffffffffff19166001600160a01b039283161790556003546040519185169250907f53d20bea7f03a447e60000b0845f7514e5d52344d489960a4aaabb244e95a18f90610ca0908a90611daa565b60405180910390a350506002805473ffffffffffffffffffffffffffffffffffffffff1916905550506003805460010190555050565b3390565b610ceb60018263ffffffff6111a916565b6040516001600160a01b038216907fee1504a83b6d4a361f4c1dc78ab59bfa30d6a3b6612c403e86bb01ef2984295f90600090a250565b610d3360018263ffffffff6111f516565b6040516001600160a01b038216907f270d9b30cf5b0793bbfd54c9d5b94aeb49462b8148399000265144a8722da6b690600090a250565b610d72611269565b610d7a611269565b8254604080516020601f60026000196101006001881615020190951694909404938401819004810282018101909252828152918591830182828015610e005780601f10610dd557610100808354040283529160200191610e00565b820191906000526020600020905b815481529060010190602001808311610de357829003601f168201915b505050918352505060018381018054604080516020600295841615610100026000190190931694909404601f810183900483028501830190915280845290830182828015610e8f5780601f10610e6457610100808354040283529160200191610e8f565b820191906000526020600020905b815481529060010190602001808311610e7257829003601f168201915b50505050508160200181905250826002015481604001818152505082600301805480602002602001604051908101604052809291908181526020016000905b82821015610f795760008481526020908190208301805460408051601f6002600019610100600187161502019094169390930492830185900485028101850190915281815292830182828015610f655780601f10610f3a57610100808354040283529160200191610f65565b820191906000526020600020905b815481529060010190602001808311610f4857829003601f168201915b505050505081526020019060010190610ece565b50505050606082015260048301805460408051602080840282018101909252828152929190830182828015610fcd57602002820191906000526020600020905b815481526020019060010190808311610fb9575b5050505050816080018190525043816040015110156110245760408051808201909152600681527f436c6f7365640000000000000000000000000000000000000000000000000000602082015260a08201526105ad565b60408051808201909152600681527f4163746976650000000000000000000000000000000000000000000000000000602082015260a082015292915050565b60006001600160a01b03821661108b5760405162461bcd60e51b815260040161036690611e8c565b506001600160a01b03166000908152602091909152604090205460ff1690565b6110bc60008263ffffffff6111f516565b6040516001600160a01b038216907f0a8eb35e5ca14b3d6f28e4abf2f128dbab231a58b56e89beb5d636115001e16590600090a250565b61110460008263ffffffff6111a916565b6040516001600160a01b038216907f22380c05984257a1cb900161c713dd71d39e74820f1aea43bd3f1bdd2096129990600090a250565b600061117d83836040518060400160405280601e81526020017f536166654d6174683a207375627472616374696f6e206f766572666c6f77000081525061123d565b9392505050565b60008282018381101561117d5760405162461bcd60e51b815260040161036690611e2c565b6111b38282611063565b156111d05760405162461bcd60e51b815260040161036690611e0c565b6001600160a01b0316600090815260209190915260409020805460ff19166001179055565b6111ff8282611063565b61121b5760405162461bcd60e51b815260040161036690611e5c565b6001600160a01b0316600090815260209190915260409020805460ff19169055565b600081848411156112615760405162461bcd60e51b81526004016103669190611daa565b505050900390565b6040518060c001604052806060815260200160608152602001600081526020016060815260200160608152602001606081525090565b6040518060c00160405280606081526020016060815260200160008152602001606081526020016060815260200160006001600160a01b031681525090565b828054600181600116156101000203166002900490600052602060002090601f016020900481019282601f1061131f57805160ff191683800117855561134c565b8280016001018555821561134c579182015b8281111561134c578251825591602001919060010190611331565b506113589291506113ef565b5090565b8280548282559060005260206000209081019282156113a9579160200282015b828111156113a957825180516113999184916020909101906112de565b509160200191906001019061137c565b50611358929150611409565b82805482825590600052602060002090810192821561134c579160200282018281111561134c578251825591602001919060010190611331565b61062d91905b8082111561135857600081556001016113f5565b61062d91905b80821115611358576000611423828261142c565b5060010161140f565b50805460018160011615610100020316600290046000825580601f106114525750610516565b601f01602090049060005260206000209081019061051691906113ef565b80356105ad81611fec565b600082601f83011261148c57600080fd5b813561149f61149a82611f20565b611ef9565b81815260209384019390925082018360005b838110156114dd57813586016114c788826114e7565b84525060209283019291909101906001016114b1565b5050505092915050565b600082601f8301126114f857600080fd5b813561150661149a82611f41565b9150808252602083016020830185838301111561152257600080fd5b61152d838284611faa565b50505092915050565b80356105ad81612000565b80516105ad81612000565b60006020828403121561155e57600080fd5b600061156a8484611470565b949350505050565b6000806000806080858703121561158857600080fd5b843567ffffffffffffffff81111561159f57600080fd5b6115ab878288016114e7565b945050602085013567ffffffffffffffff8111156115c857600080fd5b6115d4878288016114e7565b93505060406115e587828801611536565b925050606085013567ffffffffffffffff81111561160257600080fd5b61160e8782880161147b565b91505092959194509250565b600080600080600060a0868803121561163257600080fd5b853567ffffffffffffffff81111561164957600080fd5b611655888289016114e7565b955050602086013567ffffffffffffffff81111561167257600080fd5b61167e888289016114e7565b945050604061168f88828901611536565b935050606086013567ffffffffffffffff8111156116ac57600080fd5b6116b88882890161147b565b92505060806116c988828901611470565b9150509295509295909350565b6000602082840312156116e857600080fd5b600061156a8484611536565b60006020828403121561170657600080fd5b600061156a8484611541565b6000806040838503121561172557600080fd5b60006117318585611536565b925050602061174285828601611470565b9150509250929050565b6000806040838503121561175f57600080fd5b600061176b8585611536565b925050602061174285828601611536565b600061117d83836118fa565b600061117d8383611caf565b60006117a08383611d4b565b505060200190565b6117b181611f98565b82525050565b6117b181611f7c565b60006117cb82611f6f565b6117d58185611f73565b9350836020820285016117e785611f69565b8060005b858110156118215784840389528151611804858261177c565b945061180f83611f69565b60209a909a01999250506001016117eb565b5091979650505050505050565b600061183982611f6f565b6118438185611f73565b93508360208202850161185585611f69565b8060005b8581101561182157848403895281516118728582611788565b945061187d83611f69565b60209a909a0199925050600101611859565b600061189a82611f6f565b6118a48185611f73565b93506118af83611f69565b8060005b838110156118dd5781516118c78882611794565b97506118d283611f69565b9250506001016118b3565b509495945050505050565b6117b181611f87565b6117b181611f9f565b600061190582611f6f565b61190f8185611f73565b935061191f818560208601611fb6565b61192881611fe2565b9093019392505050565b600061193f601383611f73565b7f696e76616c69642070726f706f73616c20494400000000000000000000000000815260200192915050565b6000611978601f83611f73565b7f526f6c65733a206163636f756e7420616c72656164792068617320726f6c6500815260200192915050565b60006119b1601983611f73565b7f7468652070726f706f73616c206861732066696e697368656400000000000000815260200192915050565b60006119ea601b83611f73565b7f536166654d6174683a206164646974696f6e206f766572666c6f770000000000815260200192915050565b6000611a23601683611f73565b7f636e74206973206c6172676572207468616e2031303000000000000000000000815260200192915050565b6000611a5c601083611f73565b7f746f6f206d616e79206f7074696f6e7300000000000000000000000000000000815260200192915050565b6000611a95602183611f73565b7f526f6c65733a206163636f756e7420646f6573206e6f74206861766520726f6c81527f6500000000000000000000000000000000000000000000000000000000000000602082015260400192915050565b6000611af4601183611f73565b7f696e76616c6964206f7074696f6e204944000000000000000000000000000000815260200192915050565b6000611b2d600e83611f73565b7f696e76616c6964206f6666736574000000000000000000000000000000000000815260200192915050565b6000611b66602283611f73565b7f526f6c65733a206163636f756e7420697320746865207a65726f20616464726581527f7373000000000000000000000000000000000000000000000000000000000000602082015260400192915050565b6000611bc5604083611f73565b7f57686974656c69737441646d696e526f6c653a2063616c6c657220646f65732081527f6e6f742068617665207468652057686974656c69737441646d696e20726f6c65602082015260400192915050565b6000611c24603a83611f73565b7f57686974656c6973746564526f6c653a2063616c6c657220646f6573206e6f7481527f2068617665207468652057686974656c697374656420726f6c65000000000000602082015260400192915050565b6000611c83601f83611f73565b7f73656e646572206973206e6f7420746865206e6578742070726f706f73657200815260200192915050565b805160c080845260009190840190611cc782826118fa565b91505060208301518482036020860152611ce182826118fa565b9150506040830151611cf66040860182611d4b565b5060608301518482036060860152611d0e82826117c0565b91505060808301518482036080860152611d28828261188f565b91505060a083015184820360a0860152611d4282826118fa565b95945050505050565b6117b18161062d565b602081016105ad82846117b7565b60408101611d7082856117a8565b61117d6020830184611d4b565b6020808252810161117d818461182e565b602081016105ad82846118e8565b602081016105ad82846118f1565b6020808252810161117d81846118fa565b60808082528101611dcc81876118fa565b90508181036020830152611de081866118fa565b9050611def6040830185611d4b565b611d4260608301846117b7565b602080825281016105ad81611932565b602080825281016105ad8161196b565b602080825281016105ad816119a4565b602080825281016105ad816119dd565b602080825281016105ad81611a16565b602080825281016105ad81611a4f565b602080825281016105ad81611a88565b602080825281016105ad81611ae7565b602080825281016105ad81611b20565b602080825281016105ad81611b59565b602080825281016105ad81611bb8565b602080825281016105ad81611c17565b602080825281016105ad81611c76565b6020808252810161117d8184611caf565b602081016105ad8284611d4b565b60408101611d708285611d4b565b60405181810167ffffffffffffffff81118282101715611f1857600080fd5b604052919050565b600067ffffffffffffffff821115611f3757600080fd5b5060209081020190565b600067ffffffffffffffff821115611f5857600080fd5b506020601f91909101601f19160190565b60200190565b5190565b90815260200190565b60006105ad82611f8c565b151590565b6001600160a01b031690565b60006105ad825b60006105ad82611f7c565b82818337506000910152565b60005b83811015611fd1578181015183820152602001611fb9565b8381111561037c5750506000910152565b601f01601f191690565b611ff581611f7c565b811461051657600080fd5b611ff58161062d56fea365627a7a72315820cc5f512ead6f8324d6d7fe763476b7c3239e16ed96125b5783097a9ab32f7bc66c6578706572696d656e74616cf564736f6c634300050b0040",
  "source": "pragma solidity 0.5.11;\npragma experimental ABIEncoderV2;\n\nimport \"@openzeppelin/contracts/access/roles/WhitelistedRole.sol\";\nimport \"@openzeppelin/contracts/math/SafeMath.sol\";\n\nimport \"./AdminControl.sol\";\nimport \"./SponsorWhitelistControl.sol\";\nimport \"./Staking.sol\";\n\ncontract Governance is WhitelistedRole {\n    using SafeMath for uint256;\n\n    struct Proposal {\n        string title;\n        string discussion;\n        uint256 deadline;\n        string[] options;\n        uint256[] optionVotes;\n        mapping(address => uint256) votedOption;\n        mapping(address => uint256) votedPower;\n        address proposer;\n    }\n\n    struct ProposalAbstract {\n        string title;\n        string discussion;\n        uint256 deadline;\n        string[] options;\n        uint256[] optionVotes;\n        string status;\n    }\n\n    // proposal\n    address public nextProposer;\n    uint256 public proposalCnt;\n    Proposal[] public proposals;\n\n    // internal contracts\n    SponsorWhitelistControl public constant SPONSOR = SponsorWhitelistControl(\n        address(0x0888000000000000000000000000000000000001)\n    );\n\n    Staking public constant STAKING = Staking(\n        address(0x0888000000000000000000000000000000000002)\n    );\n\n    AdminControl public constant adminControl = AdminControl(\n        address(0x0888000000000000000000000000000000000000)\n    );\n\n    event Proposed(\n        uint256 indexed proposalId,\n        address indexed proposer,\n        string title\n    );\n    event Voted(\n        uint256 indexed proposalId,\n        address indexed voter,\n        uint256 indexed votedOption,\n        uint256 votedAmount\n    );\n    event WithdrawVoted(\n        uint256 indexed proposalId,\n        address indexed voter,\n        uint256 indexed withdrawOption,\n        uint256 withdrawAmount\n    );\n\n    constructor() public {\n        // remove contract admin\n        adminControl.setAdmin(address(this), address(0));\n        require(\n            adminControl.getAdmin(address(this)) == address(0),\n            \"require admin == null\"\n        );\n        // cfx sponsor\n        address[] memory users = new address[](1);\n        users[0] = address(0);\n        SPONSOR.addPrivilege(users);\n        // add whitelist\n        _addWhitelisted(msg.sender);\n    }\n\n    function getBlockNumber() public view returns (uint256) {\n        return block.number;\n    }\n\n    function summarizeProposal(Proposal storage proposal)\n        internal\n        view\n        returns (ProposalAbstract memory)\n    {\n        ProposalAbstract memory res;\n        res.title = proposal.title;\n        res.discussion = proposal.discussion;\n        res.deadline = proposal.deadline;\n        res.options = proposal.options;\n        res.optionVotes = proposal.optionVotes;\n        if (res.deadline < block.number) {\n            res.status = \"Closed\";\n        } else {\n            res.status = \"Active\";\n        }\n        return res;\n    }\n\n    function proposalCount() public view returns (uint256) {\n        return proposalCnt;\n    }\n\n    function getVoteForProposal(uint256 proposalId, address voter)\n        public\n        view\n        returns (uint256, uint256)\n    {\n        require(proposalId < proposalCnt, \"invalid proposal ID\");\n        Proposal storage proposal = proposals[proposalId];\n        return (proposal.votedOption[voter], proposal.votedPower[voter]);\n    }\n\n    function getProposalById(uint256 proposalId)\n        public\n        view\n        returns (ProposalAbstract memory)\n    {\n        require(proposalId < proposalCnt, \"invalid proposal ID\");\n        return summarizeProposal(proposals[proposalId]);\n    }\n\n    function getProposalList(uint256 offset, uint256 cnt)\n        public\n        view\n        returns (ProposalAbstract[] memory)\n    {\n        require(offset < proposalCnt, \"invalid offset\");\n        require(cnt <= 100, \"cnt is larger than 100\");\n        uint256 i = proposalCnt - 1 - offset;\n        if (cnt > i + 1) cnt = i + 1;\n        ProposalAbstract[] memory res = new ProposalAbstract[](cnt);\n        for (uint256 k = 0; k < cnt; ++k) {\n            res[k] = summarizeProposal(proposals[i - k]);\n        }\n        return res;\n    }\n\n    function setNextProposer(address proposer) public onlyWhitelisted {\n        nextProposer = proposer;\n    }\n\n    function vote(uint256 proposalId, uint256 optionId) public {\n        require(proposalId < proposalCnt, \"invalid proposal ID\");\n        Proposal storage proposal = proposals[proposalId];\n        require(proposal.deadline >= block.number, \"the proposal has finished\");\n        require(optionId < proposal.options.length, \"invalid option ID\");\n\n        uint256 lastVotedPower = proposal.votedPower[msg.sender];\n        if (lastVotedPower > 0) {\n            uint256 lastVoted = proposal.votedOption[msg.sender];\n            proposal.optionVotes[lastVoted] = proposal.optionVotes[lastVoted]\n                .sub(lastVotedPower);\n            emit WithdrawVoted(\n                proposalId,\n                msg.sender,\n                lastVoted,\n                lastVotedPower\n            );\n        }\n\n        uint256 votePower = STAKING.getVotePower(msg.sender, proposal.deadline);\n        proposal.votedOption[msg.sender] = optionId;\n        proposal.votedPower[msg.sender] = votePower;\n        proposal.optionVotes[optionId] = proposal.optionVotes[optionId].add(\n            votePower\n        );\n        emit Voted(proposalId, msg.sender, optionId, votePower);\n    }\n\n    function _submit(\n        string memory title,\n        string memory discussion,\n        uint256 deadline,\n        string[] memory options,\n        address proposer\n    ) internal {\n        require(options.length <= 1000, \"too many options\");\n\n        Proposal memory proposal;\n        proposal.title = title;\n        proposal.discussion = discussion;\n        proposal.deadline = deadline;\n        proposal.options = options;\n        proposal.optionVotes = new uint256[](options.length);\n        proposal.proposer = proposer;\n        proposals.push(proposal);\n\n        emit Proposed(proposalCnt, proposer, title);\n        nextProposer = address(0);\n        proposalCnt += 1;\n    }\n\n    function submitProposal(\n        string memory title,\n        string memory discussion,\n        uint256 deadline,\n        string[] memory options\n    ) public {\n        require(msg.sender == nextProposer, \"sender is not the next proposer\");\n        _submit(title, discussion, deadline, options, msg.sender);\n    }\n\n    function submitProposalByWhitelist(\n        string memory title,\n        string memory discussion,\n        uint256 deadline,\n        string[] memory options,\n        address proposer\n    ) public onlyWhitelisted {\n        _submit(title, discussion, deadline, options, proposer);\n    }\n}\n",
  "sourcePath": "/Users/wangfan/Project/voting/contracts/Governance.sol",
  "compiler": {
    "name": "solc",
    "version": "0.5.11+commit.c082d0b4.Emscripten.clang"
  },
  "schemaVersion": "3.0.23",
  "updatedAt": "2020-11-11T19:20:22.738Z",
  "devdoc": {
    "methods": {}
  },
  "userdoc": {
    "methods": {}
  }
}