{
  "contractName": "Governance",
  "abi": [
    {
      "constant": true,
      "inputs": [
        {
          "internalType": "uint256",
          "name": "",
          "type": "uint256"
        }
      ],
      "name": "proposals",
      "outputs": [
        {
          "internalType": "string",
          "name": "title",
          "type": "string"
        },
        {
          "internalType": "string",
          "name": "discussion",
          "type": "string"
        },
        {
          "internalType": "uint256",
          "name": "deadline",
          "type": "uint256"
        },
        {
          "internalType": "address",
          "name": "proposer",
          "type": "address"
        }
      ],
      "payable": false,
      "stateMutability": "view",
      "type": "function"
    },
    {
      "constant": false,
      "inputs": [
        {
          "internalType": "address",
          "name": "account",
          "type": "address"
        }
      ],
      "name": "addWhitelisted",
      "outputs": [],
      "payable": false,
      "stateMutability": "nonpayable",
      "type": "function"
    },
    {
      "constant": true,
      "inputs": [],
      "name": "SPONSOR",
      "outputs": [
        {
          "internalType": "contract SponsorWhitelistControl",
          "name": "",
          "type": "address"
        }
      ],
      "payable": false,
      "stateMutability": "view",
      "type": "function"
    },
    {
      "constant": false,
      "inputs": [
        {
          "internalType": "address",
          "name": "account",
          "type": "address"
        }
      ],
      "name": "removeWhitelisted",
      "outputs": [],
      "payable": false,
      "stateMutability": "nonpayable",
      "type": "function"
    },
    {
      "constant": true,
      "inputs": [],
      "name": "nextProposer",
      "outputs": [
        {
          "internalType": "address",
          "name": "",
          "type": "address"
        }
      ],
      "payable": false,
      "stateMutability": "view",
      "type": "function"
    },
    {
      "constant": true,
      "inputs": [
        {
          "internalType": "address",
          "name": "account",
          "type": "address"
        }
      ],
      "name": "isWhitelisted",
      "outputs": [
        {
          "internalType": "bool",
          "name": "",
          "type": "bool"
        }
      ],
      "payable": false,
      "stateMutability": "view",
      "type": "function"
    },
    {
      "constant": false,
      "inputs": [],
      "name": "renounceWhitelistAdmin",
      "outputs": [],
      "payable": false,
      "stateMutability": "nonpayable",
      "type": "function"
    },
    {
      "constant": true,
      "inputs": [],
      "name": "adminControl",
      "outputs": [
        {
          "internalType": "contract AdminControl",
          "name": "",
          "type": "address"
        }
      ],
      "payable": false,
      "stateMutability": "view",
      "type": "function"
    },
    {
      "constant": false,
      "inputs": [
        {
          "internalType": "address",
          "name": "account",
          "type": "address"
        }
      ],
      "name": "addWhitelistAdmin",
      "outputs": [],
      "payable": false,
      "stateMutability": "nonpayable",
      "type": "function"
    },
    {
      "constant": true,
      "inputs": [],
      "name": "STAKING",
      "outputs": [
        {
          "internalType": "contract Staking",
          "name": "",
          "type": "address"
        }
      ],
      "payable": false,
      "stateMutability": "view",
      "type": "function"
    },
    {
      "constant": true,
      "inputs": [
        {
          "internalType": "address",
          "name": "account",
          "type": "address"
        }
      ],
      "name": "isWhitelistAdmin",
      "outputs": [
        {
          "internalType": "bool",
          "name": "",
          "type": "bool"
        }
      ],
      "payable": false,
      "stateMutability": "view",
      "type": "function"
    },
    {
      "constant": true,
      "inputs": [],
      "name": "proposalCnt",
      "outputs": [
        {
          "internalType": "uint256",
          "name": "",
          "type": "uint256"
        }
      ],
      "payable": false,
      "stateMutability": "view",
      "type": "function"
    },
    {
      "constant": false,
      "inputs": [],
      "name": "renounceWhitelisted",
      "outputs": [],
      "payable": false,
      "stateMutability": "nonpayable",
      "type": "function"
    },
    {
      "inputs": [],
      "payable": false,
      "stateMutability": "nonpayable",
      "type": "constructor"
    },
    {
      "anonymous": false,
      "inputs": [
        {
          "indexed": true,
          "internalType": "uint256",
          "name": "proposalId",
          "type": "uint256"
        },
        {
          "indexed": true,
          "internalType": "address",
          "name": "proposer",
          "type": "address"
        },
        {
          "indexed": false,
          "internalType": "string",
          "name": "title",
          "type": "string"
        }
      ],
      "name": "Proposed",
      "type": "event"
    },
    {
      "anonymous": false,
      "inputs": [
        {
          "indexed": true,
          "internalType": "uint256",
          "name": "proposalId",
          "type": "uint256"
        },
        {
          "indexed": true,
          "internalType": "address",
          "name": "voter",
          "type": "address"
        },
        {
          "indexed": true,
          "internalType": "uint256",
          "name": "votedOption",
          "type": "uint256"
        },
        {
          "indexed": false,
          "internalType": "uint256",
          "name": "votedAmount",
          "type": "uint256"
        }
      ],
      "name": "Voted",
      "type": "event"
    },
    {
      "anonymous": false,
      "inputs": [
        {
          "indexed": true,
          "internalType": "uint256",
          "name": "proposalId",
          "type": "uint256"
        },
        {
          "indexed": true,
          "internalType": "address",
          "name": "voter",
          "type": "address"
        },
        {
          "indexed": true,
          "internalType": "uint256",
          "name": "withdrawOption",
          "type": "uint256"
        },
        {
          "indexed": false,
          "internalType": "uint256",
          "name": "withdrawAmount",
          "type": "uint256"
        }
      ],
      "name": "WithdrawVoted",
      "type": "event"
    },
    {
      "anonymous": false,
      "inputs": [
        {
          "indexed": true,
          "internalType": "address",
          "name": "account",
          "type": "address"
        }
      ],
      "name": "WhitelistedAdded",
      "type": "event"
    },
    {
      "anonymous": false,
      "inputs": [
        {
          "indexed": true,
          "internalType": "address",
          "name": "account",
          "type": "address"
        }
      ],
      "name": "WhitelistedRemoved",
      "type": "event"
    },
    {
      "anonymous": false,
      "inputs": [
        {
          "indexed": true,
          "internalType": "address",
          "name": "account",
          "type": "address"
        }
      ],
      "name": "WhitelistAdminAdded",
      "type": "event"
    },
    {
      "anonymous": false,
      "inputs": [
        {
          "indexed": true,
          "internalType": "address",
          "name": "account",
          "type": "address"
        }
      ],
      "name": "WhitelistAdminRemoved",
      "type": "event"
    },
    {
      "constant": true,
      "inputs": [],
      "name": "getBlockNumber",
      "outputs": [
        {
          "internalType": "uint256",
          "name": "",
          "type": "uint256"
        }
      ],
      "payable": false,
      "stateMutability": "view",
      "type": "function"
    },
    {
      "constant": true,
      "inputs": [],
      "name": "proposalCount",
      "outputs": [
        {
          "internalType": "uint256",
          "name": "",
          "type": "uint256"
        }
      ],
      "payable": false,
      "stateMutability": "view",
      "type": "function"
    },
    {
      "constant": true,
      "inputs": [
        {
          "internalType": "uint256",
          "name": "proposalId",
          "type": "uint256"
        },
        {
          "internalType": "address",
          "name": "voter",
          "type": "address"
        }
      ],
      "name": "getVoteForProposal",
      "outputs": [
        {
          "internalType": "uint256",
          "name": "",
          "type": "uint256"
        },
        {
          "internalType": "uint256",
          "name": "",
          "type": "uint256"
        }
      ],
      "payable": false,
      "stateMutability": "view",
      "type": "function"
    },
    {
      "constant": true,
      "inputs": [
        {
          "internalType": "uint256",
          "name": "proposalId",
          "type": "uint256"
        }
      ],
      "name": "getProposalById",
      "outputs": [
        {
          "components": [
            {
              "internalType": "string",
              "name": "title",
              "type": "string"
            },
            {
              "internalType": "string",
              "name": "discussion",
              "type": "string"
            },
            {
              "internalType": "uint256",
              "name": "deadline",
              "type": "uint256"
            },
            {
              "internalType": "string[]",
              "name": "options",
              "type": "string[]"
            },
            {
              "internalType": "uint256[]",
              "name": "optionVotes",
              "type": "uint256[]"
            },
            {
              "internalType": "string",
              "name": "status",
              "type": "string"
            },
            {
              "internalType": "address",
              "name": "proposer",
              "type": "address"
            },
            {
              "internalType": "uint256",
              "name": "proposalId",
              "type": "uint256"
            }
          ],
          "internalType": "struct Governance.ProposalAbstract",
          "name": "",
          "type": "tuple"
        }
      ],
      "payable": false,
      "stateMutability": "view",
      "type": "function"
    },
    {
      "constant": true,
      "inputs": [
        {
          "internalType": "uint256",
          "name": "offset",
          "type": "uint256"
        },
        {
          "internalType": "uint256",
          "name": "cnt",
          "type": "uint256"
        }
      ],
      "name": "getProposalList",
      "outputs": [
        {
          "components": [
            {
              "internalType": "string",
              "name": "title",
              "type": "string"
            },
            {
              "internalType": "string",
              "name": "discussion",
              "type": "string"
            },
            {
              "internalType": "uint256",
              "name": "deadline",
              "type": "uint256"
            },
            {
              "internalType": "string[]",
              "name": "options",
              "type": "string[]"
            },
            {
              "internalType": "uint256[]",
              "name": "optionVotes",
              "type": "uint256[]"
            },
            {
              "internalType": "string",
              "name": "status",
              "type": "string"
            },
            {
              "internalType": "address",
              "name": "proposer",
              "type": "address"
            },
            {
              "internalType": "uint256",
              "name": "proposalId",
              "type": "uint256"
            }
          ],
          "internalType": "struct Governance.ProposalAbstract[]",
          "name": "",
          "type": "tuple[]"
        }
      ],
      "payable": false,
      "stateMutability": "view",
      "type": "function"
    },
    {
      "constant": false,
      "inputs": [
        {
          "internalType": "address",
          "name": "proposer",
          "type": "address"
        }
      ],
      "name": "setNextProposer",
      "outputs": [],
      "payable": false,
      "stateMutability": "nonpayable",
      "type": "function"
    },
    {
      "constant": false,
      "inputs": [
        {
          "internalType": "uint256",
          "name": "proposalId",
          "type": "uint256"
        },
        {
          "internalType": "uint256",
          "name": "optionId",
          "type": "uint256"
        }
      ],
      "name": "vote",
      "outputs": [],
      "payable": false,
      "stateMutability": "nonpayable",
      "type": "function"
    },
    {
      "constant": false,
      "inputs": [
        {
          "internalType": "string",
          "name": "title",
          "type": "string"
        },
        {
          "internalType": "string",
          "name": "discussion",
          "type": "string"
        },
        {
          "internalType": "uint256",
          "name": "deadline",
          "type": "uint256"
        },
        {
          "internalType": "string[]",
          "name": "options",
          "type": "string[]"
        }
      ],
      "name": "submitProposal",
      "outputs": [],
      "payable": false,
      "stateMutability": "nonpayable",
      "type": "function"
    },
    {
      "constant": false,
      "inputs": [
        {
          "internalType": "string",
          "name": "title",
          "type": "string"
        },
        {
          "internalType": "string",
          "name": "discussion",
          "type": "string"
        },
        {
          "internalType": "uint256",
          "name": "deadline",
          "type": "uint256"
        },
        {
          "internalType": "string[]",
          "name": "options",
          "type": "string[]"
        },
        {
          "internalType": "address",
          "name": "proposer",
          "type": "address"
        }
      ],
      "name": "submitProposalByWhitelist",
      "outputs": [],
      "payable": false,
      "stateMutability": "nonpayable",
      "type": "function"
    }
  ],
  "bytecode": "0x60806040523480156200001157600080fd5b5062000038620000296001600160e01b036200029e16565b6001600160e01b03620002a216565b6040517fc55b6bb70000000000000000000000000000000000000000000000000000000081527308880000000000000000000000000000000000009063c55b6bb7906200008d903090600090600401620005d7565b600060405180830381600087803b158015620000a857600080fd5b505af1158015620000bd573d6000803e3d6000fd5b50506040517f64efb22b0000000000000000000000000000000000000000000000000000000081526000925073088800000000000000000000000000000000000091506364efb22b9062000116903090600401620005c7565b60206040518083038186803b1580156200012f57600080fd5b505afa15801562000144573d6000803e3d6000fd5b505050506040513d601f19601f820116820180604052506200016a919081019062000430565b6001600160a01b031614620001b6576040517f08c379a0000000000000000000000000000000000000000000000000000000008152600401620001ad9062000622565b60405180910390fd5b60408051600180825281830190925260609160208083019080388339019050509050600081600081518110620001e857fe5b6001600160a01b03909216602092830291909101909101526040517f10128d3e000000000000000000000000000000000000000000000000000000008152730888000000000000000000000000000000000001906310128d3e9062000252908490600401620005fd565b600060405180830381600087803b1580156200026d57600080fd5b505af115801562000282573d6000803e3d6000fd5b505050506200029733620002f460201b60201c565b5062000699565b3390565b620002bd8160006200034660201b620011b91790919060201c565b6040516001600160a01b038216907f22380c05984257a1cb900161c713dd71d39e74820f1aea43bd3f1bdd2096129990600090a250565b6200030f8160016200034660201b620011b91790919060201c565b6040516001600160a01b038216907fee1504a83b6d4a361f4c1dc78ab59bfa30d6a3b6612c403e86bb01ef2984295f90600090a250565b6200035b82826001600160e01b03620003ba16565b1562000395576040517f08c379a0000000000000000000000000000000000000000000000000000000008152600401620001ad9062000610565b6001600160a01b0316600090815260209190915260409020805460ff19166001179055565b60006001600160a01b038216620003ff576040517f08c379a0000000000000000000000000000000000000000000000000000000008152600401620001ad9062000634565b506001600160a01b03811660009081526020839052604090205460ff165b92915050565b80516200041d816200067f565b6000602082840312156200044357600080fd5b600062000451848462000423565b949350505050565b600062000467838362000480565b505060200190565b6200047a816200066b565b82525050565b6200047a8162000659565b600062000498826200064c565b620004a4818562000650565b9350620004b18362000646565b8060005b83811015620004e5578151620004cc888262000459565b9750620004d98362000646565b925050600101620004b5565b509495945050505050565b6000620004ff601f8362000650565b7f526f6c65733a206163636f756e7420616c72656164792068617320726f6c6500815260200192915050565b60006200053a60158362000650565b7f726571756972652061646d696e203d3d206e756c6c0000000000000000000000815260200192915050565b60006200057560228362000650565b7f526f6c65733a206163636f756e7420697320746865207a65726f20616464726581527f7373000000000000000000000000000000000000000000000000000000000000602082015260400192915050565b602081016200041d828462000480565b60408101620005e7828562000480565b620005f660208301846200046f565b9392505050565b60208082528101620005f681846200048b565b602080825281016200041d81620004f0565b602080825281016200041d816200052b565b602080825281016200041d8162000566565b60200190565b5190565b90815260200190565b60006001600160a01b0382166200041d565b60006200041d8260006200041d8262000659565b6200068a8162000659565b81146200069657600080fd5b50565b6120a580620006a96000396000f3fe608060405234801561001057600080fd5b50600436106101815760003560e01c8063555d3e63116100d8578063a9cdb7cb1161008c578063be1add6111610066578063be1add6114610324578063d6cd94731461032c578063da35c6641461033457610181565b8063a9cdb7cb146102eb578063b384abef146102fe578063bb5f747b1461031157610181565b80637362d9c8116100bd5780637362d9c8146102b057806373708b1b146102c357806397610f30146102e357610181565b8063555d3e63146102875780636e7875a71461028f57610181565b80633656de211161013a5780633af32abf116101145780633af32abf1461024a57806342cbb15c1461026a5780634c5a628c1461027f57610181565b80633656de21146102025780633956173e146102225780633a0089561461023557610181565b806310154bad1161016b57806310154bad146101c75780631d073a7a146101da578063291d9549146101ef57610181565b8062c9a96214610186578063013cf08b1461019b575b600080fd5b61019961019436600461159a565b61033c565b005b6101ae6101a93660046116fe565b610382565b6040516101be9493929190611e0b565b60405180910390f35b6101996101d5366004611574565b6104e6565b6101e2610519565b6040516101be9190611dec565b6101996101fd366004611574565b610531565b6102156102103660046116fe565b610561565b6040516101be9190611f25565b610199610230366004611574565b610599565b61023d6105ef565b6040516101be9190611da4565b61025d610258366004611574565b6105fe565b6040516101be9190611dde565b610272610611565b6040516101be9190611f36565b610199610616565b6101e2610628565b6102a261029d36600461173a565b610640565b6040516101be929190611f44565b6101996102be366004611574565b6106b5565b6102d66102d1366004611774565b6106e5565b6040516101be9190611dcd565b6101e26107c0565b6101996102f9366004611642565b6107d8565b61019961030c366004611774565b610813565b61025d61031f366004611574565b610abb565b610272610acd565b610199610ad3565b610272610ae3565b6002546001600160a01b0316331461036f5760405162461bcd60e51b815260040161036690611f15565b60405180910390fd5b61037c8484848433610ae9565b50505050565b6004818154811061038f57fe5b60009182526020918290206008919091020180546040805160026001841615610100026000190190931692909204601f8101859004850283018501909152808252919350918391908301828280156104285780601f106103fd57610100808354040283529160200191610428565b820191906000526020600020905b81548152906001019060200180831161040b57829003601f168201915b505050505090806001018054600181600116156101000203166002900480601f0160208091040260200160405190810160405280929190818152602001828054600181600116156101000203166002900480156104c65780601f1061049b576101008083540402835291602001916104c6565b820191906000526020600020905b8154815290600101906020018083116104a957829003601f168201915b5050505060028301546007909301549192916001600160a01b0316905084565b6104f161031f610cb5565b61050d5760405162461bcd60e51b815260040161036690611ef5565b61051681610cb9565b50565b73088800000000000000000000000000000000000181565b61053c61031f610cb5565b6105585760405162461bcd60e51b815260040161036690611ef5565b61051681610d01565b610569611279565b600354821061058a5760405162461bcd60e51b815260040161036690611e55565b61059382610d49565b92915050565b6105a4610258610cb5565b6105c05760405162461bcd60e51b815260040161036690611f05565b6002805473ffffffffffffffffffffffffffffffffffffffff19166001600160a01b0392909216919091179055565b6002546001600160a01b031681565b600061059360018363ffffffff61107a16565b435b90565b610626610621610cb5565b6110c2565b565b73088800000000000000000000000000000000000081565b60008060035484106106645760405162461bcd60e51b815260040161036690611e55565b60006004858154811061067357fe5b600091825260208083206001600160a01b0388168452600560089093020191820181526040808420546006909301909152909120549093509150509250929050565b6106c061031f610cb5565b6106dc5760405162461bcd60e51b815260040161036690611ef5565b6105168161110a565b606060035483106107085760405162461bcd60e51b815260040161036690611ed5565b60648211156107295760405162461bcd60e51b815260040161036690611e95565b600354839003600019810190831115610743578060010192505b60608360405190808252806020026020018201604052801561077f57816020015b61076c611279565b8152602001906001900390816107645790505b50905060005b848110156107b757610798818403610d49565b8282815181106107a457fe5b6020908102919091010152600101610785565b50949350505050565b73088800000000000000000000000000000000000281565b6107e3610258610cb5565b6107ff5760405162461bcd60e51b815260040161036690611f05565b61080c8585858585610ae9565b5050505050565b60035482106108345760405162461bcd60e51b815260040161036690611e55565b60006004838154811061084357fe5b9060005260206000209060080201905043816002015410156108775760405162461bcd60e51b815260040161036690611e75565b6003810154821061089a5760405162461bcd60e51b815260040161036690611ec5565b3360009081526006820160205260409020548015610955573360009081526005830160205260409020546004830180546108f3918491849081106108da57fe5b906000526020600020015461115290919063ffffffff16565b83600401828154811061090257fe5b906000526020600020018190555080336001600160a01b0316867f0d73152460c4be6c9f1693e15109cf8a8682b9faf06a25208c1e0bb915c26f1d8560405161094b9190611f36565b60405180910390a4505b60028201546040517fc90abac80000000000000000000000000000000000000000000000000000000081526000917308880000000000000000000000000000000000029163c90abac8916109ae91339190600401611db2565b60206040518083038186803b1580156109c657600080fd5b505afa1580156109da573d6000803e3d6000fd5b505050506040513d601f19601f820116820180604052506109fe919081019061171c565b3360009081526005850160209081526040808320889055600687019091529020819055600484018054919250610a549183919087908110610a3b57fe5b906000526020600020015461119490919063ffffffff16565b836004018581548110610a6357fe5b906000526020600020018190555083336001600160a01b0316867fb4c54afd73915f9f756c8dee39fe0b311937871a92261a47747f7a3d32f63a0c84604051610aac9190611f36565b60405180910390a45050505050565b6000610593818363ffffffff61107a16565b60035481565b610626610ade610cb5565b610d01565b60035490565b6103e882511115610b0c5760405162461bcd60e51b815260040161036690611ea5565b610b146112c7565b85815260208082018690526040808301869052606083018590528451815181815281840281019093019091528015610b56578160200160208202803883390190505b5060808201526001600160a01b03821660a082015260048054600181018083556000929092528251805184926008027f8a35acfbc15ff81a39ae7d344fd709f28e8600b4aa8c65c6b64bfe7fe36bd19b0191610bb791839160200190611306565b506020828101518051610bd09260018501920190611306565b506040820151600282015560608201518051610bf6916003840191602090910190611384565b5060808201518051610c129160048401916020909101906113dd565b5060a091909101516007909101805473ffffffffffffffffffffffffffffffffffffffff19166001600160a01b039283161790556003546040519185169250907f53d20bea7f03a447e60000b0845f7514e5d52344d489960a4aaabb244e95a18f90610c7f908a90611dfa565b60405180910390a350506002805473ffffffffffffffffffffffffffffffffffffffff1916905550506003805460010190555050565b3390565b610cca60018263ffffffff6111b916565b6040516001600160a01b038216907fee1504a83b6d4a361f4c1dc78ab59bfa30d6a3b6612c403e86bb01ef2984295f90600090a250565b610d1260018263ffffffff61120516565b6040516001600160a01b038216907f270d9b30cf5b0793bbfd54c9d5b94aeb49462b8148399000265144a8722da6b690600090a250565b610d51611279565b600060048381548110610d6057fe5b90600052602060002090600802019050610d78611279565b8154604080516020601f60026000196101006001881615020190951694909404938401819004810282018101909252828152918491830182828015610dfe5780601f10610dd357610100808354040283529160200191610dfe565b820191906000526020600020905b815481529060010190602001808311610de157829003601f168201915b505050918352505060018281018054604080516020600295841615610100026000190190931694909404601f810183900483028501830190915280845290830182828015610e8d5780601f10610e6257610100808354040283529160200191610e8d565b820191906000526020600020905b815481529060010190602001808311610e7057829003601f168201915b50505050508160200181905250816002015481604001818152505081600301805480602002602001604051908101604052809291908181526020016000905b82821015610f775760008481526020908190208301805460408051601f6002600019610100600187161502019094169390930492830185900485028101850190915281815292830182828015610f635780601f10610f3857610100808354040283529160200191610f63565b820191906000526020600020905b815481529060010190602001808311610f4657829003601f168201915b505050505081526020019060010190610ecc565b50505050606082015260048201805460408051602080840282018101909252828152929190830182828015610fcb57602002820191906000526020600020905b815481526020019060010190808311610fb7575b5050505050608082015260078201546001600160a01b031660c082015260e0810184905260408101514311156110395760408051808201909152600681527f436c6f7365640000000000000000000000000000000000000000000000000000602082015260a0820152611073565b60408051808201909152600681527f4163746976650000000000000000000000000000000000000000000000000000602082015260a08201525b9392505050565b60006001600160a01b0382166110a25760405162461bcd60e51b815260040161036690611ee5565b506001600160a01b03166000908152602091909152604090205460ff1690565b6110d360008263ffffffff61120516565b6040516001600160a01b038216907f0a8eb35e5ca14b3d6f28e4abf2f128dbab231a58b56e89beb5d636115001e16590600090a250565b61111b60008263ffffffff6111b916565b6040516001600160a01b038216907f22380c05984257a1cb900161c713dd71d39e74820f1aea43bd3f1bdd2096129990600090a250565b600061107383836040518060400160405280601e81526020017f536166654d6174683a207375627472616374696f6e206f766572666c6f77000081525061124d565b6000828201838110156110735760405162461bcd60e51b815260040161036690611e85565b6111c3828261107a565b156111e05760405162461bcd60e51b815260040161036690611e65565b6001600160a01b0316600090815260209190915260409020805460ff19166001179055565b61120f828261107a565b61122b5760405162461bcd60e51b815260040161036690611eb5565b6001600160a01b0316600090815260209190915260409020805460ff19169055565b600081848411156112715760405162461bcd60e51b81526004016103669190611dfa565b505050900390565b60405180610100016040528060608152602001606081526020016000815260200160608152602001606081526020016060815260200160006001600160a01b03168152602001600081525090565b6040518060c00160405280606081526020016060815260200160008152602001606081526020016060815260200160006001600160a01b031681525090565b828054600181600116156101000203166002900490600052602060002090601f016020900481019282601f1061134757805160ff1916838001178555611374565b82800160010185558215611374579182015b82811115611374578251825591602001919060010190611359565b50611380929150611417565b5090565b8280548282559060005260206000209081019282156113d1579160200282015b828111156113d157825180516113c1918491602090910190611306565b50916020019190600101906113a4565b50611380929150611431565b8280548282559060005260206000209081019282156113745791602002820182811115611374578251825591602001919060010190611359565b61061391905b80821115611380576000815560010161141d565b61061391905b8082111561138057600061144b8282611454565b50600101611437565b50805460018160011615610100020316600290046000825580601f1061147a5750610516565b601f0160209004906000526020600020908101906105169190611417565b803561059381612045565b600082601f8301126114b457600080fd5b81356114c76114c282611f79565b611f52565b81815260209384019390925082018360005b8381101561150557813586016114ef888261150f565b84525060209283019291909101906001016114d9565b5050505092915050565b600082601f83011261152057600080fd5b813561152e6114c282611f9a565b9150808252602083016020830185838301111561154a57600080fd5b611555838284612003565b50505092915050565b803561059381612059565b805161059381612059565b60006020828403121561158657600080fd5b60006115928484611498565b949350505050565b600080600080608085870312156115b057600080fd5b843567ffffffffffffffff8111156115c757600080fd5b6115d38782880161150f565b945050602085013567ffffffffffffffff8111156115f057600080fd5b6115fc8782880161150f565b935050604061160d8782880161155e565b925050606085013567ffffffffffffffff81111561162a57600080fd5b611636878288016114a3565b91505092959194509250565b600080600080600060a0868803121561165a57600080fd5b853567ffffffffffffffff81111561167157600080fd5b61167d8882890161150f565b955050602086013567ffffffffffffffff81111561169a57600080fd5b6116a68882890161150f565b94505060406116b78882890161155e565b935050606086013567ffffffffffffffff8111156116d457600080fd5b6116e0888289016114a3565b92505060806116f188828901611498565b9150509295509295909350565b60006020828403121561171057600080fd5b6000611592848461155e565b60006020828403121561172e57600080fd5b60006115928484611569565b6000806040838503121561174d57600080fd5b6000611759858561155e565b925050602061176a85828601611498565b9150509250929050565b6000806040838503121561178757600080fd5b6000611793858561155e565b925050602061176a8582860161155e565b60006110738383611922565b60006110738383611cd7565b60006117c88383611d9b565b505060200190565b6117d981611ff1565b82525050565b6117d981611fd5565b60006117f382611fc8565b6117fd8185611fcc565b93508360208202850161180f85611fc2565b8060005b85811015611849578484038952815161182c85826117a4565b945061183783611fc2565b60209a909a0199925050600101611813565b5091979650505050505050565b600061186182611fc8565b61186b8185611fcc565b93508360208202850161187d85611fc2565b8060005b85811015611849578484038952815161189a85826117b0565b94506118a583611fc2565b60209a909a0199925050600101611881565b60006118c282611fc8565b6118cc8185611fcc565b93506118d783611fc2565b8060005b838110156119055781516118ef88826117bc565b97506118fa83611fc2565b9250506001016118db565b509495945050505050565b6117d981611fe0565b6117d981611ff8565b600061192d82611fc8565b6119378185611fcc565b935061194781856020860161200f565b6119508161203b565b9093019392505050565b6000611967601383611fcc565b7f696e76616c69642070726f706f73616c20494400000000000000000000000000815260200192915050565b60006119a0601f83611fcc565b7f526f6c65733a206163636f756e7420616c72656164792068617320726f6c6500815260200192915050565b60006119d9601983611fcc565b7f7468652070726f706f73616c206861732066696e697368656400000000000000815260200192915050565b6000611a12601b83611fcc565b7f536166654d6174683a206164646974696f6e206f766572666c6f770000000000815260200192915050565b6000611a4b601683611fcc565b7f636e74206973206c6172676572207468616e2031303000000000000000000000815260200192915050565b6000611a84601083611fcc565b7f746f6f206d616e79206f7074696f6e7300000000000000000000000000000000815260200192915050565b6000611abd602183611fcc565b7f526f6c65733a206163636f756e7420646f6573206e6f74206861766520726f6c81527f6500000000000000000000000000000000000000000000000000000000000000602082015260400192915050565b6000611b1c601183611fcc565b7f696e76616c6964206f7074696f6e204944000000000000000000000000000000815260200192915050565b6000611b55600e83611fcc565b7f696e76616c6964206f6666736574000000000000000000000000000000000000815260200192915050565b6000611b8e602283611fcc565b7f526f6c65733a206163636f756e7420697320746865207a65726f20616464726581527f7373000000000000000000000000000000000000000000000000000000000000602082015260400192915050565b6000611bed604083611fcc565b7f57686974656c69737441646d696e526f6c653a2063616c6c657220646f65732081527f6e6f742068617665207468652057686974656c69737441646d696e20726f6c65602082015260400192915050565b6000611c4c603a83611fcc565b7f57686974656c6973746564526f6c653a2063616c6c657220646f6573206e6f7481527f2068617665207468652057686974656c697374656420726f6c65000000000000602082015260400192915050565b6000611cab601f83611fcc565b7f73656e646572206973206e6f7420746865206e6578742070726f706f73657200815260200192915050565b805161010080845260009190840190611cf08282611922565b91505060208301518482036020860152611d0a8282611922565b9150506040830151611d1f6040860182611d9b565b5060608301518482036060860152611d3782826117e8565b91505060808301518482036080860152611d5182826118b7565b91505060a083015184820360a0860152611d6b8282611922565b91505060c0830151611d8060c08601826117df565b5060e0830151611d9360e0860182611d9b565b509392505050565b6117d981610613565b6020810161059382846117df565b60408101611dc082856117d0565b6110736020830184611d9b565b602080825281016110738184611856565b602081016105938284611910565b602081016105938284611919565b602080825281016110738184611922565b60808082528101611e1c8187611922565b90508181036020830152611e308186611922565b9050611e3f6040830185611d9b565b611e4c60608301846117df565b95945050505050565b602080825281016105938161195a565b6020808252810161059381611993565b60208082528101610593816119cc565b6020808252810161059381611a05565b6020808252810161059381611a3e565b6020808252810161059381611a77565b6020808252810161059381611ab0565b6020808252810161059381611b0f565b6020808252810161059381611b48565b6020808252810161059381611b81565b6020808252810161059381611be0565b6020808252810161059381611c3f565b6020808252810161059381611c9e565b602080825281016110738184611cd7565b602081016105938284611d9b565b60408101611dc08285611d9b565b60405181810167ffffffffffffffff81118282101715611f7157600080fd5b604052919050565b600067ffffffffffffffff821115611f9057600080fd5b5060209081020190565b600067ffffffffffffffff821115611fb157600080fd5b506020601f91909101601f19160190565b60200190565b5190565b90815260200190565b600061059382611fe5565b151590565b6001600160a01b031690565b6000610593825b600061059382611fd5565b82818337506000910152565b60005b8381101561202a578181015183820152602001612012565b8381111561037c5750506000910152565b601f01601f191690565b61204e81611fd5565b811461051657600080fd5b61204e8161061356fea365627a7a723158201a29af065d46760141b2f6bac7ee0e63e7f29111e86d963286309b11473bf89a6c6578706572696d656e74616cf564736f6c634300050b0040",
  "source": "pragma solidity 0.5.11;\npragma experimental ABIEncoderV2;\n\nimport \"@openzeppelin/contracts/access/roles/WhitelistedRole.sol\";\nimport \"@openzeppelin/contracts/math/SafeMath.sol\";\n\nimport \"./AdminControl.sol\";\nimport \"./SponsorWhitelistControl.sol\";\nimport \"./Staking.sol\";\n\ncontract Governance is WhitelistedRole {\n    using SafeMath for uint256;\n\n    struct Proposal {\n        string title;\n        string discussion;\n        uint256 deadline;\n        string[] options;\n        uint256[] optionVotes;\n        mapping(address => uint256) votedOption;\n        mapping(address => uint256) votedPower;\n        address proposer;\n    }\n\n    struct ProposalAbstract {\n        string title;\n        string discussion;\n        uint256 deadline;\n        string[] options;\n        uint256[] optionVotes;\n        string status;\n        address proposer;\n        uint256 proposalId;\n    }\n\n    // proposal\n    address public nextProposer;\n    uint256 public proposalCnt;\n    Proposal[] public proposals;\n\n    // internal contracts\n    SponsorWhitelistControl public constant SPONSOR = SponsorWhitelistControl(\n        address(0x0888000000000000000000000000000000000001)\n    );\n\n    Staking public constant STAKING = Staking(\n        address(0x0888000000000000000000000000000000000002)\n    );\n\n    AdminControl public constant adminControl = AdminControl(\n        address(0x0888000000000000000000000000000000000000)\n    );\n\n    event Proposed(\n        uint256 indexed proposalId,\n        address indexed proposer,\n        string title\n    );\n    event Voted(\n        uint256 indexed proposalId,\n        address indexed voter,\n        uint256 indexed votedOption,\n        uint256 votedAmount\n    );\n    event WithdrawVoted(\n        uint256 indexed proposalId,\n        address indexed voter,\n        uint256 indexed withdrawOption,\n        uint256 withdrawAmount\n    );\n\n    constructor() public {\n        // remove contract admin\n        adminControl.setAdmin(address(this), address(0));\n        require(\n            adminControl.getAdmin(address(this)) == address(0),\n            \"require admin == null\"\n        );\n        // cfx sponsor\n        address[] memory users = new address[](1);\n        users[0] = address(0);\n        SPONSOR.addPrivilege(users);\n        // add whitelist\n        _addWhitelisted(msg.sender);\n    }\n\n    function getBlockNumber() public view returns (uint256) {\n        return block.number;\n    }\n\n    function summarizeProposal(uint256 idx)\n        internal\n        view\n        returns (ProposalAbstract memory)\n    {\n        Proposal storage proposal = proposals[idx];\n        ProposalAbstract memory res;\n        res.title = proposal.title;\n        res.discussion = proposal.discussion;\n        res.deadline = proposal.deadline;\n        res.options = proposal.options;\n        res.optionVotes = proposal.optionVotes;\n        res.proposer = proposal.proposer;\n        res.proposalId = idx;\n        if (res.deadline < block.number) {\n            res.status = \"Closed\";\n        } else {\n            res.status = \"Active\";\n        }\n        return res;\n    }\n\n    function proposalCount() public view returns (uint256) {\n        return proposalCnt;\n    }\n\n    function getVoteForProposal(uint256 proposalId, address voter)\n        public\n        view\n        returns (uint256, uint256)\n    {\n        require(proposalId < proposalCnt, \"invalid proposal ID\");\n        Proposal storage proposal = proposals[proposalId];\n        return (proposal.votedOption[voter], proposal.votedPower[voter]);\n    }\n\n    function getProposalById(uint256 proposalId)\n        public\n        view\n        returns (ProposalAbstract memory)\n    {\n        require(proposalId < proposalCnt, \"invalid proposal ID\");\n        return summarizeProposal(proposalId);\n    }\n\n    function getProposalList(uint256 offset, uint256 cnt)\n        public\n        view\n        returns (ProposalAbstract[] memory)\n    {\n        require(offset < proposalCnt, \"invalid offset\");\n        require(cnt <= 100, \"cnt is larger than 100\");\n        uint256 i = proposalCnt - 1 - offset;\n        if (cnt > i + 1) cnt = i + 1;\n        ProposalAbstract[] memory res = new ProposalAbstract[](cnt);\n        for (uint256 k = 0; k < cnt; ++k) {\n            res[k] = summarizeProposal(i - k);\n        }\n        return res;\n    }\n\n    function setNextProposer(address proposer) public onlyWhitelisted {\n        nextProposer = proposer;\n    }\n\n    function vote(uint256 proposalId, uint256 optionId) public {\n        require(proposalId < proposalCnt, \"invalid proposal ID\");\n        Proposal storage proposal = proposals[proposalId];\n        require(proposal.deadline >= block.number, \"the proposal has finished\");\n        require(optionId < proposal.options.length, \"invalid option ID\");\n\n        uint256 lastVotedPower = proposal.votedPower[msg.sender];\n        if (lastVotedPower > 0) {\n            uint256 lastVoted = proposal.votedOption[msg.sender];\n            proposal.optionVotes[lastVoted] = proposal.optionVotes[lastVoted]\n                .sub(lastVotedPower);\n            emit WithdrawVoted(\n                proposalId,\n                msg.sender,\n                lastVoted,\n                lastVotedPower\n            );\n        }\n\n        uint256 votePower = STAKING.getVotePower(msg.sender, proposal.deadline);\n        proposal.votedOption[msg.sender] = optionId;\n        proposal.votedPower[msg.sender] = votePower;\n        proposal.optionVotes[optionId] = proposal.optionVotes[optionId].add(\n            votePower\n        );\n        emit Voted(proposalId, msg.sender, optionId, votePower);\n    }\n\n    function _submit(\n        string memory title,\n        string memory discussion,\n        uint256 deadline,\n        string[] memory options,\n        address proposer\n    ) internal {\n        require(options.length <= 1000, \"too many options\");\n\n        Proposal memory proposal;\n        proposal.title = title;\n        proposal.discussion = discussion;\n        proposal.deadline = deadline;\n        proposal.options = options;\n        proposal.optionVotes = new uint256[](options.length);\n        proposal.proposer = proposer;\n        proposals.push(proposal);\n\n        emit Proposed(proposalCnt, proposer, title);\n        nextProposer = address(0);\n        proposalCnt += 1;\n    }\n\n    function submitProposal(\n        string memory title,\n        string memory discussion,\n        uint256 deadline,\n        string[] memory options\n    ) public {\n        require(msg.sender == nextProposer, \"sender is not the next proposer\");\n        _submit(title, discussion, deadline, options, msg.sender);\n    }\n\n    function submitProposalByWhitelist(\n        string memory title,\n        string memory discussion,\n        uint256 deadline,\n        string[] memory options,\n        address proposer\n    ) public onlyWhitelisted {\n        _submit(title, discussion, deadline, options, proposer);\n    }\n}\n",
  "sourcePath": "/Users/wangfan/Project/voting/contracts/Governance.sol",
  "compiler": {
    "name": "solc",
    "version": "0.5.11+commit.c082d0b4.Emscripten.clang"
  },
  "schemaVersion": "3.0.23",
  "updatedAt": "2020-11-12T06:11:28.183Z",
  "devdoc": {
    "methods": {}
  },
  "userdoc": {
    "methods": {}
  }
}