{
  "contractName": "Staking",
  "abi": [
    {
      "constant": true,
      "inputs": [
        {
          "internalType": "address",
          "name": "user",
          "type": "address"
        }
      ],
      "name": "getStakingBalance",
      "outputs": [
        {
          "internalType": "uint256",
          "name": "",
          "type": "uint256"
        }
      ],
      "payable": false,
      "stateMutability": "view",
      "type": "function"
    },
    {
      "constant": true,
      "inputs": [
        {
          "internalType": "address",
          "name": "user",
          "type": "address"
        },
        {
          "internalType": "uint256",
          "name": "blockNumber",
          "type": "uint256"
        }
      ],
      "name": "getLockedStakingBalance",
      "outputs": [
        {
          "internalType": "uint256",
          "name": "",
          "type": "uint256"
        }
      ],
      "payable": false,
      "stateMutability": "view",
      "type": "function"
    },
    {
      "constant": true,
      "inputs": [
        {
          "internalType": "address",
          "name": "user",
          "type": "address"
        },
        {
          "internalType": "uint256",
          "name": "blockNumber",
          "type": "uint256"
        }
      ],
      "name": "getVotePower",
      "outputs": [
        {
          "internalType": "uint256",
          "name": "",
          "type": "uint256"
        }
      ],
      "payable": false,
      "stateMutability": "view",
      "type": "function"
    },
    {
      "constant": false,
      "inputs": [
        {
          "internalType": "uint256",
          "name": "amount",
          "type": "uint256"
        }
      ],
      "name": "deposit",
      "outputs": [],
      "payable": false,
      "stateMutability": "nonpayable",
      "type": "function"
    },
    {
      "constant": false,
      "inputs": [
        {
          "internalType": "uint256",
          "name": "amount",
          "type": "uint256"
        }
      ],
      "name": "withdraw",
      "outputs": [],
      "payable": false,
      "stateMutability": "nonpayable",
      "type": "function"
    },
    {
      "constant": false,
      "inputs": [
        {
          "internalType": "uint256",
          "name": "amount",
          "type": "uint256"
        },
        {
          "internalType": "uint256",
          "name": "unlockBlockNumber",
          "type": "uint256"
        }
      ],
      "name": "voteLock",
      "outputs": [],
      "payable": false,
      "stateMutability": "nonpayable",
      "type": "function"
    }
  ],
  "bytecode": "0x608060405234801561001057600080fd5b50610181806100206000396000f3fe608060405234801561001057600080fd5b50600436106100725760003560e01c8063b3657ee711610050578063b3657ee7146100fe578063b6b55f2514610077578063c90abac8146100fe57610072565b80632e1a7d4d1461007757806344a51d6d14610096578063b04ef9c2146100b9575b600080fd5b6100946004803603602081101561008d57600080fd5b5035610137565b005b610094600480360360408110156100ac57600080fd5b508035906020013561013a565b6100ec600480360360208110156100cf57600080fd5b503573ffffffffffffffffffffffffffffffffffffffff1661013e565b60408051918252519081900360200190f35b6100ec6004803603604081101561011457600080fd5b5073ffffffffffffffffffffffffffffffffffffffff8135169060200135610144565b50565b5050565b50600090565b60009291505056fea265627a7a72315820e7516e2664b4271d904dca389322f42f1aeae50328bacd0dbc7ce2004331053364736f6c634300050b0032",
  "source": "// SPDX-License-Identifier: MIT\n\npragma solidity >=0.4.15;\n\ncontract Staking {\n    /*** Query Functions ***/\n    /**\n     * @dev get user's staking balance\n     * @param user The address of specific user\n     */\n    function getStakingBalance(address user) public view returns (uint256) {}\n\n    /**\n     * @dev get user's locked staking balance at given blockNumber\n     * @param user The address of specific user\n     * @param blockNumber The blockNumber as index.\n     */\n    // ------------------------------------------------------------------------\n    // Note: if the blockNumber is less than the current block number, function\n    // will return current locked staking balance.\n    // ------------------------------------------------------------------------\n    function getLockedStakingBalance(address user, uint256 blockNumber)\n        public\n        view\n        returns (uint256)\n    {}\n\n    /**\n     * @dev get user's vote power staking balance at given blockNumber\n     * @param user The address of specific user\n     * @param blockNumber The blockNumber as index.\n     */\n    // ------------------------------------------------------------------------\n    // Note: if the blockNumber is less than the current block number, function\n    // will return current vote power.\n    // ------------------------------------------------------------------------\n    function getVotePower(address user, uint256 blockNumber)\n        public\n        view\n        returns (uint256)\n    {}\n\n    function deposit(uint256 amount) external {}\n\n    function withdraw(uint256 amount) external {}\n\n    function voteLock(uint256 amount, uint256 unlockBlockNumber) external {}\n}\n",
  "sourcePath": "/Users/wangfan/Project/voting/contracts/Staking.sol",
  "compiler": {
    "name": "solc",
    "version": "0.5.11+commit.c082d0b4.Emscripten.clang"
  },
  "schemaVersion": "3.0.23",
  "updatedAt": "2020-11-11T16:44:22.705Z",
  "devdoc": {
    "methods": {
      "getLockedStakingBalance(address,uint256)": {
        "details": "get user's locked staking balance at given blockNumber",
        "params": {
          "blockNumber": "The blockNumber as index.",
          "user": "The address of specific user"
        }
      },
      "getStakingBalance(address)": {
        "details": "get user's staking balance",
        "params": {
          "user": "The address of specific user"
        }
      },
      "getVotePower(address,uint256)": {
        "details": "get user's vote power staking balance at given blockNumber",
        "params": {
          "blockNumber": "The blockNumber as index.",
          "user": "The address of specific user"
        }
      }
    }
  },
  "userdoc": {
    "methods": {}
  }
}